:040000000C94440018
:100004000C9400000C9400000C9400000C94B100BB
:100014000C9400000C9400000C9400000C9400005C
:100024000C9471000C9400000C9400000C940000DB
:100034000C9400000C9400000C9400000C9400003C
:100044000C9400000C9400000C9400000C9400002C
:100054003F065B4F666D7D077F6F21220C142122C2
:100064000C1400001E001E002300010002006600A4
:10007400010061016800010062016A00010063017E
:100084006C000000F894EE27ECBBF1E0FBBFEBBF83
:10009400E5BF8DE0A2E0BB27ED938A95E9F780E008
:1000A40094E0A0E6ED930197E9F7EEE6F0E08591A0
:1000B4009591009761F0A591B59105901590BF01B8
:1000C400F00105900D920197E1F7FB01F0CFEFE508
:1000D400EDBFE4E0EEBFC0E6D1E00C94D8000A9294
:1000E4001A929A93AA93BA93EA93FA93EFB7EA937C
:1000F400E0E0E5BBEFEFE2BBE0916401E03039F40E
:10010400E1E0E5BBA0916201A0D0E1E01CC0A091B8
:100114006401A13039F4E2E0E5BBA0916201A0D012
:10012400E2E011C0A0916401A23039F4E4E0E5BB3F
:10013400A09163018AD0E3E006C0E8E0E5BBA091AA
:1001440063018ED0E0E0E0936401E991EFBFF9919F
:10015400E991B991A9919991199009901895EA9307
:10016400EFB7689420F8EFBFE9911895E09160012A
:10017400E03029F480D0EB5FE093630116C0A091D6
:100184006001A13021F477D0E09363010EC0A09107
:100194006001A23019F476D0EB5F05C0A091600134
:1001A400A33019F46FD0E09362010895EFE3EABB42
:1001B400E7BBEFE0E4BBEFEFE1BBEFE0E5BBEFEF64
:1001C400E2BB67D0E2E0E3BFE0E0E2BFE8E0E2BD2B
:1001D400E5E0E5BDE0E0E4BDE1E4E9BF7894C6DF35
:1001E40020FE31C0E89420F8A0916101A13030F0E4
:1001F400E0916101E150E093610124C0E09160016C
:10020400F0E0309729F4E1E0E0936001E5E017C005
:10021400E130A0E0FA0711F4E2E00EC0E230A0E021
:10022400FA0729F4E3E0E0936001E5E008C0E33075
:10023400A0E0FA0731F4E0E0E0936001EEE1E0933E
:10024400610127D093DFCCCFFFCFB0E0EAE0F0E04C
:100254000E947101EC5AFF4FE491E095E2BB0895CE
:10026400BB27EAE0F0E00E947601EC5AFF4FE491EC
:10027400E095E2BB0895E0916101E0936201E091B1
:1002840061010895E0916101E0936301E0916101EE
:100294000895E0916001F0E0E25AFF4F04900BBA38
:1002A400E0916001F0E0EE59FF4F049008BA089520
:1002B400F195E195F04008950024112490E1AA0FEE
:1002C400BB1F001C111C0E1A1F0A18F40E0E1F1E51
:1002D40001C0A1609A9599F7FD01D001089512D04B
:1002E400EBDF0EF4E5DF0895E894B7FF04C0A095B2
:1002F400B09511966894F7FDDBDFDEDFFD010EF4A7
:10030400D7DF0895E894F7FF02C0D2DF6894B7FFFF
:1003140006C0A095B095119600F8039400FA0895CC
:00000001FF
